{
  "contractName": "TollTransactions",
  "abi": [
    {
      "inputs": [],
      "stateMutability": "nonpayable",
      "type": "constructor"
    },
    {
      "anonymous": false,
      "inputs": [
        {
          "indexed": false,
          "internalType": "uint256",
          "name": "transactionId",
          "type": "uint256"
        },
        {
          "indexed": true,
          "internalType": "address",
          "name": "sender",
          "type": "address"
        },
        {
          "indexed": false,
          "internalType": "address",
          "name": "recipient",
          "type": "address"
        },
        {
          "indexed": false,
          "internalType": "uint256",
          "name": "amount",
          "type": "uint256"
        }
      ],
      "name": "TransactionCompleted",
      "type": "event"
    },
    {
      "inputs": [
        {
          "internalType": "uint256",
          "name": "",
          "type": "uint256"
        }
      ],
      "name": "TransactionStored",
      "type": "event"
    },
    {
      "inputs": [
        {
          "internalType": "address",
          "name": "recipient",
          "type": "address"
        },
        {
          "internalType": "uint256",
          "name": "tollAmount",
          "type": "uint256"
        }
      ],
      "stateMutability": "view",
      "type": "function",
      "constant": true
    },
    {
      "inputs": [
        {
          "internalType": "uint256",
          "name": "",
          "type": "uint256"
        }
      ],
      "name": "makeTransaction",
      "outputs": [],
      "stateMutability": "payable",
      "type": "function",
      "payable": true
    },
    {
      "inputs": [
        {
          "internalType": "address",
          "name": "user",
          "type": "address"
        }
      ],
      "name": "getTransactionsByUser",
      "outputs": [
        {
          "components": [
            {
              "internalType": "uint256",
              "name": "transactionId",
              "type": "uint256"
            },
            {
              "internalType": "address",
              "name": "sender",
              "type": "address"
            },
            {
              "internalType": "address",
              "name": "recipient",
              "type": "address"
            },
            {
              "internalType": "uint256",
              "name": "amount",
              "type": "uint256"
            },
            {
              "internalType": "uint256",
              "name": "timestamp",
              "type": "uint256"
            }
          ],
          "internalType": "struct TollTransactions.Transaction[]",
          "name": "",
          "type": "tuple[]"
        }
      ],
      "stateMutability": "view",
      "type": "function",
      "constant": true
    }
  ],
  "bytecode": "0x608060405234801561001057600080fd5b50610da4806100206000396000f3fe608060405234801561001057600080fd5b50600436106100415760003560e01c8063047ac364146100465780631ff1d6d1146100765780632e7700f014610092575b600080fd5b610060600480360381019061005b91906108e8565b6100b0565b60405161006d9190610b18565b60405180910390f35b610090600480360381019061008b9190610911565b6105f4565b005b61009a610857565b6040516100a79190610b9a565b60405180910390f35b6060600073ffffffffffffffffffffffffffffffffffffffff168273ffffffffffffffffffffffffffffffffffffffff161415610122576040517f08c379a000000000000000000000000000000000000000000000000000000000815260040161011990610b3a565b60405180910390fd5b6000805b600080549050811015610295578373ffffffffffffffffffffffffffffffffffffffff1660008281548110610184577f4e487b7100000000000000000000000000000000000000000000000000000000600052603260045260246000fd5b906000526020600020906005020160010160009054906101000a900473ffffffffffffffffffffffffffffffffffffffff1673ffffffffffffffffffffffffffffffffffffffff16148061026e57508373ffffffffffffffffffffffffffffffffffffffff1660008281548110610224577f4e487b7100000000000000000000000000000000000000000000000000000000600052603260045260246000fd5b906000526020600020906005020160020160009054906101000a900473ffffffffffffffffffffffffffffffffffffffff1673ffffffffffffffffffffffffffffffffffffffff16145b1561028257818061027e90610cc8565b9250505b808061028d90610cc8565b915050610126565b5060008167ffffffffffffffff8111156102d8577f4e487b7100000000000000000000000000000000000000000000000000000000600052604160045260246000fd5b60405190808252806020026020018201604052801561031157816020015b6102fe610863565b8152602001906001900390816102f65790505b5090506000805b6000805490508110156105e8578573ffffffffffffffffffffffffffffffffffffffff1660008281548110610376577f4e487b7100000000000000000000000000000000000000000000000000000000600052603260045260246000fd5b906000526020600020906005020160010160009054906101000a900473ffffffffffffffffffffffffffffffffffffffff1673ffffffffffffffffffffffffffffffffffffffff16148061046057508573ffffffffffffffffffffffffffffffffffffffff1660008281548110610416577f4e487b7100000000000000000000000000000000000000000000000000000000600052603260045260246000fd5b906000526020600020906005020160020160009054906101000a900473ffffffffffffffffffffffffffffffffffffffff1673ffffffffffffffffffffffffffffffffffffffff16145b156105d5576000818154811061049f577f4e487b7100000000000000000000000000000000000000000000000000000000600052603260045260246000fd5b90600052602060002090600502016040518060a0016040529081600082015481526020016001820160009054906101000a900473ffffffffffffffffffffffffffffffffffffffff1673ffffffffffffffffffffffffffffffffffffffff1673ffffffffffffffffffffffffffffffffffffffff1681526020016002820160009054906101000a900473ffffffffffffffffffffffffffffffffffffffff1673ffffffffffffffffffffffffffffffffffffffff1673ffffffffffffffffffffffffffffffffffffffff168152602001600382015481526020016004820154815250508383815181106105bb577f4e487b7100000000000000000000000000000000000000000000000000000000600052603260045260246000fd5b602002602001018190525081806105d190610cc8565b9250505b80806105e090610cc8565b915050610318565b50819350505050919050565b600073ffffffffffffffffffffffffffffffffffffffff168273ffffffffffffffffffffffffffffffffffffffff161415610664576040517f08c379a000000000000000000000000000000000000000000000000000000000815260040161065b90610b7a565b60405180910390fd5b600081116106a7576040517f08c379a000000000000000000000000000000000000000000000000000000000815260040161069e90610b5a565b60405180910390fd5b600060016000805490506106bb9190610c36565b905060006040518060a001604052808381526020013373ffffffffffffffffffffffffffffffffffffffff1681526020018573ffffffffffffffffffffffffffffffffffffffff1681526020018481526020014281525090806001815401808255809150506001900390600052602060002090600502016000909190919091506000820151816000015560208201518160010160006101000a81548173ffffffffffffffffffffffffffffffffffffffff021916908373ffffffffffffffffffffffffffffffffffffffff16021790555060408201518160020160006101000a81548173ffffffffffffffffffffffffffffffffffffffff021916908373ffffffffffffffffffffffffffffffffffffffff160217905550606082015181600301556080820151816004015550508273ffffffffffffffffffffffffffffffffffffffff163373ffffffffffffffffffffffffffffffffffffffff167f4903b61d4bc7e77acb304fa0e809567ec0b555e0141e5b4272e2685f932b304583854260405161084a93929190610bb5565b60405180910390a3505050565b60008080549050905090565b6040518060a0016040528060008152602001600073ffffffffffffffffffffffffffffffffffffffff168152602001600073ffffffffffffffffffffffffffffffffffffffff16815260200160008152602001600081525090565b6000813590506108cd81610d40565b92915050565b6000813590506108e281610d57565b92915050565b6000602082840312156108fa57600080fd5b6000610908848285016108be565b91505092915050565b6000806040838503121561092457600080fd5b6000610932858286016108be565b9250506020610943858286016108d3565b9150509250929050565b60006109598383610a92565b60a08301905092915050565b61096e81610c8c565b82525050565b600061097f82610bfc565b6109898185610c14565b935061099483610bec565b8060005b838110156109c55781516109ac888261094d565b97506109b783610c07565b925050600181019050610998565b5085935050505092915050565b60006109df601483610c25565b91507f496e76616c6964207573657220616464726573730000000000000000000000006000830152602082019050919050565b6000610a1f602083610c25565b91507f416d6f756e74206d7573742062652067726561746572207468616e207a65726f6000830152602082019050919050565b6000610a5f601983610c25565b91507f496e76616c696420726563697069656e742061646472657373000000000000006000830152602082019050919050565b60a082016000820151610aa86000850182610afa565b506020820151610abb6020850182610965565b506040820151610ace6040850182610965565b506060820151610ae16060850182610afa565b506080820151610af46080850182610afa565b50505050565b610b0381610cbe565b82525050565b610b1281610cbe565b82525050565b60006020820190508181036000830152610b328184610974565b905092915050565b60006020820190508181036000830152610b53816109d2565b9050919050565b60006020820190508181036000830152610b7381610a12565b9050919050565b60006020820190508181036000830152610b9381610a52565b9050919050565b6000602082019050610baf6000830184610b09565b92915050565b6000606082019050610bca6000830186610b09565b610bd76020830185610b09565b610be46040830184610b09565b949350505050565b6000819050602082019050919050565b600081519050919050565b6000602082019050919050565b600082825260208201905092915050565b600082825260208201905092915050565b6000610c4182610cbe565b9150610c4c83610cbe565b9250827fffffffffffffffffffffffffffffffffffffffffffffffffffffffffffffffff03821115610c8157610c80610d11565b5b828201905092915050565b6000610c9782610c9e565b9050919050565b600073ffffffffffffffffffffffffffffffffffffffff82169050919050565b6000819050919050565b6000610cd382610cbe565b91507fffffffffffffffffffffffffffffffffffffffffffffffffffffffffffffffff821415610d0657610d05610d11565b5b600182019050919050565b7f4e487b7100000000000000000000000000000000000000000000000000000000600052601160045260246000fd5b610d4981610c8c565b8114610d5457600080fd5b50565b610d6081610cbe565b8114610d6b57600080fd5b5056fea2646970667358221220eb8db66d69d9f060121f68864a38a14867daf604847aa5a741a697e29405411c64736f6c63430008000033",
  "immutableReferences": {},
  "source": "// SPDX-License-Identifier: MIT\npragma solidity ^0.8.0;\n\ncontract TollTransactions {\n    // Structure to store a single transaction\n    struct Transaction {\n        uint256 transactionId;  // Unique ID for the transaction\n        address sender;         // Address of the sender\n        address recipient;      // Address of the recipient\n        uint256 amount;         // Amount transferred\n        uint256 timestamp;      // Time of transaction\n    }\n\n    // Array to store all transactions\n    Transaction[] private transactions;\n\n    // Event emitted when a transaction is stored\n    event TransactionStored(uint256 transactionId, address indexed sender, address indexed recipient, uint256 amount, uint256 timestamp);\n\n    // Function to store a new transaction\n    function storeTransaction(address recipient, uint256 amount) public {\n        require(recipient != address(0), \"Invalid recipient address\");\n        require(amount > 0, \"Amount must be greater than zero\");\n\n        uint256 transactionId = transactions.length + 1; // Generate transaction ID\n\n        transactions.push(Transaction({\n            transactionId: transactionId,\n            sender: msg.sender,\n            recipient: recipient,\n            amount: amount,\n            timestamp: block.timestamp\n        }));\n\n        emit TransactionStored(transactionId, msg.sender, recipient, amount, block.timestamp);\n    }\n\n    // Function to get the total number of transactions\n    function getTransactionCount() public view returns (uint256) {\n        return transactions.length;\n    }\n\n    // Function to get all transactions for a specific user (sender or recipient)\n    function getTransactionsByUser(address user) public view returns (Transaction[] memory) {\n        require(user != address(0), \"Invalid user address\");\n\n        uint256 count = 0;\n        for (uint256 i = 0; i < transactions.length; i++) {\n            if (transactions[i].sender == user || transactions[i].recipient == user) {\n                count++;\n            }\n        }\n\n        Transaction[] memory userTransactions = new Transaction[](count);\n        uint256 index = 0;\n\n        for (uint256 i = 0; i < transactions.length; i++) {\n            if (transactions[i].sender == user || transactions[i].recipient == user) {\n                userTransactions[index] = transactions[i];\n                index++;\n            }\n        }\n\n        return userTransactions;\n    }\n\n}\n",
  "sourcePath": "/home/captaincuckoo/Documents/kode/major-proj/blockchain-bs/contracts/TollTransactions.sol",
  "compiler": {
    "name": "solc",
    "version": "0.8.0+commit.c7dfd78e.Emscripten.clang"
  },
  "schemaVersion": "3.4.16",
  "updatedAt": "2024-11-18T16:08:18.916Z",
  "networkType": "ethereum",
  "devdoc": {
    "kind": "dev",
    "methods": {},
    "version": 1
  },
  "userdoc": {
    "kind": "user",
    "methods": {},
    "version": 1
  }
}