{
  "contractName": "TollTransactions",
  "abi": [
    {
      "inputs": [],
      "stateMutability": "nonpayable",
      "type": "constructor"
    },
    {
      "anonymous": false,
      "inputs": [
        {
          "indexed": false,
          "internalType": "address",
          "name": "vehicleOwner",
          "type": "address"
        },
        {
          "indexed": false,
          "internalType": "address",
          "name": "tollBoothOwner",
          "type": "address"
        },
        {
          "indexed": false,
          "internalType": "uint256",
          "name": "amount",
          "type": "uint256"
        },
        {
          "indexed": false,
          "internalType": "uint256",
          "name": "timestamp",
          "type": "uint256"
        }
      ],
      "name": "TollPaid",
      "type": "event"
    },
    {
      "inputs": [
        {
          "internalType": "address",
          "name": "",
          "type": "address"
        }
      ],
      "name": "tollBooths",
      "outputs": [
        {
          "internalType": "address",
          "name": "owner",
          "type": "address"
        },
        {
          "internalType": "uint256",
          "name": "tollAmount",
          "type": "uint256"
        }
      ],
      "stateMutability": "view",
      "type": "function",
      "constant": true
    },
    {
      "inputs": [
        {
          "internalType": "address",
          "name": "",
          "type": "address"
        }
      ],
      "name": "vehicles",
      "outputs": [
        {
          "internalType": "address",
          "name": "owner",
          "type": "address"
        }
      ],
      "stateMutability": "view",
      "type": "function",
      "constant": true
    },
    {
      "inputs": [
        {
          "internalType": "address",
          "name": "_owner",
          "type": "address"
        }
      ],
      "name": "registerVehicle",
      "outputs": [],
      "stateMutability": "nonpayable",
      "type": "function"
    },
    {
      "inputs": [
        {
          "internalType": "address",
          "name": "_owner",
          "type": "address"
        },
        {
          "internalType": "uint256",
          "name": "_tollAmount",
          "type": "uint256"
        }
      ],
      "name": "registerTollBooth",
      "outputs": [],
      "stateMutability": "nonpayable",
      "type": "function"
    },
    {
      "inputs": [
        {
          "internalType": "address",
          "name": "_vehicleOwner",
          "type": "address"
        },
        {
          "internalType": "address",
          "name": "_tollBoothOwner",
          "type": "address"
        }
      ],
      "name": "payToll",
      "outputs": [],
      "stateMutability": "payable",
      "type": "function",
      "payable": true
    },
    {
      "inputs": [
        {
          "internalType": "address",
          "name": "_tollBoothOwner",
          "type": "address"
        }
      ],
      "name": "checkTollAmount",
      "outputs": [
        {
          "internalType": "uint256",
          "name": "",
          "type": "uint256"
        }
      ],
      "stateMutability": "view",
      "type": "function",
      "constant": true
    }
  ],
  "bytecode": "0x608060405234801561001057600080fd5b506109ff806100206000396000f3fe6080604052600436106100555760003560e01c8063028e77681461005a5780636c449e7a1461009757806370992003146100c05780638cec7426146100dc578063e5d5030f14610105578063f9090aca14610142575b600080fd5b34801561006657600080fd5b50610081600480360381019061007c91906106cb565b610180565b60405161008e919061084a565b60405180910390f35b3480156100a357600080fd5b506100be60048036038101906100b991906106cb565b6101be565b005b6100da60048036038101906100d591906106f4565b61026e565b005b3480156100e857600080fd5b5061010360048036038101906100fe9190610730565b61054f565b005b34801561011157600080fd5b5061012c600480360381019061012791906106cb565b610611565b6040516101399190610933565b60405180910390f35b34801561014e57600080fd5b50610169600480360381019061016491906106cb565b61065d565b6040516101779291906108aa565b60405180910390f35b60006020528060005260406000206000915090508060000160009054906101000a900473ffffffffffffffffffffffffffffffffffffffff16905081565b60405180602001604052808273ffffffffffffffffffffffffffffffffffffffff168152506000808373ffffffffffffffffffffffffffffffffffffffff1673ffffffffffffffffffffffffffffffffffffffff16815260200190815260200160002060008201518160000160006101000a81548173ffffffffffffffffffffffffffffffffffffffff021916908373ffffffffffffffffffffffffffffffffffffffff16021790555090505050565b600073ffffffffffffffffffffffffffffffffffffffff166000808473ffffffffffffffffffffffffffffffffffffffff1673ffffffffffffffffffffffffffffffffffffffff16815260200190815260200160002060000160009054906101000a900473ffffffffffffffffffffffffffffffffffffffff1673ffffffffffffffffffffffffffffffffffffffff16141561033f576040517f08c379a0000000000000000000000000000000000000000000000000000000008152600401610336906108f3565b60405180910390fd5b600073ffffffffffffffffffffffffffffffffffffffff16600160008373ffffffffffffffffffffffffffffffffffffffff1673ffffffffffffffffffffffffffffffffffffffff16815260200190815260200160002060000160009054906101000a900473ffffffffffffffffffffffffffffffffffffffff1673ffffffffffffffffffffffffffffffffffffffff161415610411576040517f08c379a0000000000000000000000000000000000000000000000000000000008152600401610408906108d3565b60405180910390fd5b8173ffffffffffffffffffffffffffffffffffffffff163373ffffffffffffffffffffffffffffffffffffffff161461047f576040517f08c379a000000000000000000000000000000000000000000000000000000000815260040161047690610913565b60405180910390fd5b6000600160008373ffffffffffffffffffffffffffffffffffffffff1673ffffffffffffffffffffffffffffffffffffffff1681526020019081526020016000206001015490508173ffffffffffffffffffffffffffffffffffffffff166108fc349081150290604051600060405180830381858888f1935050505015801561050c573d6000803e3d6000fd5b507fdcd2636dbc8969b189508b93046a7c2394a989aa062c68a4429d40d0936c42a8838383426040516105429493929190610865565b60405180910390a1505050565b60405180604001604052808373ffffffffffffffffffffffffffffffffffffffff16815260200182815250600160008473ffffffffffffffffffffffffffffffffffffffff1673ffffffffffffffffffffffffffffffffffffffff16815260200190815260200160002060008201518160000160006101000a81548173ffffffffffffffffffffffffffffffffffffffff021916908373ffffffffffffffffffffffffffffffffffffffff160217905550602082015181600101559050505050565b6000600160008373ffffffffffffffffffffffffffffffffffffffff1673ffffffffffffffffffffffffffffffffffffffff168152602001908152602001600020600101549050919050565b60016020528060005260406000206000915090508060000160009054906101000a900473ffffffffffffffffffffffffffffffffffffffff16908060010154905082565b6000813590506106b08161099b565b92915050565b6000813590506106c5816109b2565b92915050565b6000602082840312156106dd57600080fd5b60006106eb848285016106a1565b91505092915050565b6000806040838503121561070757600080fd5b6000610715858286016106a1565b9250506020610726858286016106a1565b9150509250929050565b6000806040838503121561074357600080fd5b6000610751858286016106a1565b9250506020610762858286016106b6565b9150509250929050565b6107758161095f565b82525050565b600061078860198361094e565b91507f546f6c6c20626f6f7468206e6f742072656769737465726564000000000000006000830152602082019050919050565b60006107c860168361094e565b91507f56656869636c65206e6f742072656769737465726564000000000000000000006000830152602082019050919050565b6000610808601f8361094e565b91507f4f6e6c792076656869636c65206f776e65722063616e2070617920746f6c6c006000830152602082019050919050565b61084481610991565b82525050565b600060208201905061085f600083018461076c565b92915050565b600060808201905061087a600083018761076c565b610887602083018661076c565b610894604083018561083b565b6108a1606083018461083b565b95945050505050565b60006040820190506108bf600083018561076c565b6108cc602083018461083b565b9392505050565b600060208201905081810360008301526108ec8161077b565b9050919050565b6000602082019050818103600083015261090c816107bb565b9050919050565b6000602082019050818103600083015261092c816107fb565b9050919050565b6000602082019050610948600083018461083b565b92915050565b600082825260208201905092915050565b600061096a82610971565b9050919050565b600073ffffffffffffffffffffffffffffffffffffffff82169050919050565b6000819050919050565b6109a48161095f565b81146109af57600080fd5b50565b6109bb81610991565b81146109c657600080fd5b5056fea2646970667358221220bd1e9eb60d44ad20551224f686c919c404b5b932c27e59c1d4bb0617aec94fe364736f6c63430008000033",
  "immutableReferences": {},
  "source": "// SPDX-License-Identifier: MIT\r\npragma solidity ^0.8.0;\r\n\r\ncontract TollTransactions {\r\n\r\n    struct Vehicle {\r\n        address owner; // The wallet address of the vehicle owner\r\n    }\r\n\r\n    struct TollBooth {\r\n        address owner; // The wallet address of the toll booth owner\r\n        uint256 tollAmount; // The toll amount in wei (this is the fee for passing the toll)\r\n    }\r\n\r\n    mapping(address => Vehicle) public vehicles; // Mapping from vehicle address to vehicle details\r\n    mapping(address => TollBooth) public tollBooths; // Mapping from toll booth address to toll booth details\r\n\r\n    event TollPaid(address vehicleOwner, address tollBoothOwner, uint256 amount, uint256 timestamp);\r\n\r\n    constructor() {}\r\n\r\n    // Register a vehicle with the owner's address\r\n    function registerVehicle(address _owner) public {\r\n        vehicles[_owner] = Vehicle(_owner); // Initialize the vehicle\r\n    }\r\n\r\n    // Register a toll booth with the owner's address and toll amount\r\n    function registerTollBooth(address _owner, uint256 _tollAmount) public {\r\n        tollBooths[_owner] = TollBooth(_owner, _tollAmount); // Initialize the toll booth with toll amount\r\n    }\r\n\r\n    // Function to pay the toll (deduct from sender's account)\r\n    function payToll(address _vehicleOwner, address _tollBoothOwner) public payable {\r\n        // Ensure the vehicle is registered\r\n        require(vehicles[_vehicleOwner].owner != address(0), \"Vehicle not registered\");\r\n\r\n        // Ensure the toll booth is registered\r\n        require(tollBooths[_tollBoothOwner].owner != address(0), \"Toll booth not registered\");\r\n\r\n        // Ensure the sender is the vehicle owner\r\n        require(msg.sender == _vehicleOwner, \"Only vehicle owner can pay toll\");\r\n\r\n        // Retrieve the toll amount for the specific toll booth\r\n        uint256 tollAmount = tollBooths[_tollBoothOwner].tollAmount;\r\n\r\n        // Ensure the correct amount is sent (based on toll amount)\r\n\r\n        // Transfer the toll amount to the toll booth owner\r\n        payable(_tollBoothOwner).transfer(msg.value);\r\n\r\n        // Emit the event to log the toll payment\r\n        emit TollPaid(_vehicleOwner, _tollBoothOwner, tollAmount, block.timestamp);\r\n    }\r\n\r\n    // Function to check the toll amount for a specific toll booth\r\n    function checkTollAmount(address _tollBoothOwner) public view returns (uint256) {\r\n        return tollBooths[_tollBoothOwner].tollAmount;\r\n    }\r\n}\r\n",
  "sourcePath": "C:\\Users\\ujjaw\\Downloads\\work\\block chain\\blockchainproject\\blockchain-test\\contracts\\TollTransactions.sol",
  "compiler": {
    "name": "solc",
    "version": "0.8.0+commit.c7dfd78e.Emscripten.clang"
  },
  "schemaVersion": "3.4.16",
  "updatedAt": "2024-11-19T11:39:16.732Z",
  "networkType": "ethereum",
  "devdoc": {
    "kind": "dev",
    "methods": {},
    "version": 1
  },
  "userdoc": {
    "kind": "user",
    "methods": {},
    "version": 1
  }
}