{
  "contractName": "TollTransactions",
  "abi": [
    {
      "anonymous": false,
      "inputs": [
        {
          "indexed": true,
          "internalType": "uint256",
          "name": "id",
          "type": "uint256"
        },
        {
          "indexed": true,
          "internalType": "address",
          "name": "userPublicKey",
          "type": "address"
        },
        {
          "indexed": true,
          "internalType": "address",
          "name": "tollBoothPublicKey",
          "type": "address"
        },
        {
          "indexed": false,
          "internalType": "uint256",
          "name": "amount",
          "type": "uint256"
        }
      ],
      "name": "TransactionCompleted",
      "type": "event"
    },
    {
      "inputs": [
        {
          "internalType": "uint256",
          "name": "",
          "type": "uint256"
        }
      ],
      "name": "transactions",
      "outputs": [
        {
          "internalType": "uint256",
          "name": "id",
          "type": "uint256"
        },
        {
          "internalType": "address",
          "name": "userPublicKey",
          "type": "address"
        },
        {
          "internalType": "address",
          "name": "tollBoothPublicKey",
          "type": "address"
        },
        {
          "internalType": "uint256",
          "name": "amount",
          "type": "uint256"
        }
      ],
      "stateMutability": "view",
      "type": "function",
      "constant": true
    },
    {
      "inputs": [
        {
          "internalType": "uint256",
          "name": "_id",
          "type": "uint256"
        },
        {
          "internalType": "address",
          "name": "_userPublicKey",
          "type": "address"
        },
        {
          "internalType": "address",
          "name": "_tollBoothPublicKey",
          "type": "address"
        },
        {
          "internalType": "uint256",
          "name": "_amount",
          "type": "uint256"
        }
      ],
      "name": "makeTransaction",
      "outputs": [],
      "stateMutability": "payable",
      "type": "function",
      "payable": true
    },
    {
      "inputs": [
        {
          "internalType": "uint256",
          "name": "_id",
          "type": "uint256"
        }
      ],
      "name": "getTransaction",
      "outputs": [
        {
          "internalType": "uint256",
          "name": "id",
          "type": "uint256"
        },
        {
          "internalType": "address",
          "name": "userPublicKey",
          "type": "address"
        },
        {
          "internalType": "address",
          "name": "tollBoothPublicKey",
          "type": "address"
        },
        {
          "internalType": "uint256",
          "name": "amount",
          "type": "uint256"
        }
      ],
      "stateMutability": "view",
      "type": "function",
      "constant": true
    }
  ],
  "bytecode": "0x608060405234801561001057600080fd5b506107ee806100206000396000f3fe6080604052600436106100345760003560e01c806333ea3dc8146100395780639ace38c214610079578063d83aba18146100b9575b600080fd5b34801561004557600080fd5b50610060600480360381019061005b9190610513565b6100d5565b60405161007094939291906106f8565b60405180910390f35b34801561008557600080fd5b506100a0600480360381019061009b9190610513565b610228565b6040516100b094939291906106f8565b60405180910390f35b6100d360048036038101906100ce919061053c565b610298565b005b6000806000806000806000878152602001908152602001600020604051806080016040529081600082015481526020016001820160009054906101000a900473ffffffffffffffffffffffffffffffffffffffff1673ffffffffffffffffffffffffffffffffffffffff1673ffffffffffffffffffffffffffffffffffffffff1681526020016002820160009054906101000a900473ffffffffffffffffffffffffffffffffffffffff1673ffffffffffffffffffffffffffffffffffffffff1673ffffffffffffffffffffffffffffffffffffffff1681526020016003820154815250509050600081600001511415610204576040517f08c379a00000000000000000000000000000000000000000000000000000000081526004016101fb9061069d565b60405180910390fd5b80600001518160200151826040015183606001519450945094509450509193509193565b60006020528060005260406000206000915090508060000154908060010160009054906101000a900473ffffffffffffffffffffffffffffffffffffffff16908060020160009054906101000a900473ffffffffffffffffffffffffffffffffffffffff16908060030154905084565b8034146102da576040517f08c379a00000000000000000000000000000000000000000000000000000000081526004016102d1906106bd565b60405180910390fd5b60008060008681526020019081526020016000206000015414610332576040517f08c379a00000000000000000000000000000000000000000000000000000000081526004016103299061067d565b60405180910390fd5b60405180608001604052808581526020018473ffffffffffffffffffffffffffffffffffffffff1681526020018373ffffffffffffffffffffffffffffffffffffffff168152602001828152506000808681526020019081526020016000206000820151816000015560208201518160010160006101000a81548173ffffffffffffffffffffffffffffffffffffffff021916908373ffffffffffffffffffffffffffffffffffffffff16021790555060408201518160020160006101000a81548173ffffffffffffffffffffffffffffffffffffffff021916908373ffffffffffffffffffffffffffffffffffffffff160217905550606082015181600301559050508173ffffffffffffffffffffffffffffffffffffffff166108fc829081150290604051600060405180830381858888f1935050505015801561047c573d6000803e3d6000fd5b508173ffffffffffffffffffffffffffffffffffffffff168373ffffffffffffffffffffffffffffffffffffffff16857fdc8b3e3bd87b1ed41b4cff3b9ab24f89261ed2b876257d5d33ed0c3472bacaf6846040516104db91906106dd565b60405180910390a450505050565b6000813590506104f88161078a565b92915050565b60008135905061050d816107a1565b92915050565b60006020828403121561052557600080fd5b6000610533848285016104fe565b91505092915050565b6000806000806080858703121561055257600080fd5b6000610560878288016104fe565b9450506020610571878288016104e9565b9350506040610582878288016104e9565b9250506060610593878288016104fe565b91505092959194509250565b6105a88161074e565b82525050565b60006105bb601e8361073d565b91507f5472616e73616374696f6e20494420616c7265616479206578697374732e00006000830152602082019050919050565b60006105fb60168361073d565b91507f5472616e73616374696f6e206e6f7420666f756e642e000000000000000000006000830152602082019050919050565b600061063b60168361073d565b91507f496e636f727265637420616d6f756e742073656e742e000000000000000000006000830152602082019050919050565b61067781610780565b82525050565b60006020820190508181036000830152610696816105ae565b9050919050565b600060208201905081810360008301526106b6816105ee565b9050919050565b600060208201905081810360008301526106d68161062e565b9050919050565b60006020820190506106f2600083018461066e565b92915050565b600060808201905061070d600083018761066e565b61071a602083018661059f565b610727604083018561059f565b610734606083018461066e565b95945050505050565b600082825260208201905092915050565b600061075982610760565b9050919050565b600073ffffffffffffffffffffffffffffffffffffffff82169050919050565b6000819050919050565b6107938161074e565b811461079e57600080fd5b50565b6107aa81610780565b81146107b557600080fd5b5056fea2646970667358221220c68e5d72f8f232601a0457094f048395d1035a7cc0a468c40efa6e20205db86f64736f6c63430008000033",
  "immutableReferences": {},
  "source": "// SPDX-License-Identifier: MIT\npragma solidity ^0.8.0;\n\ncontract TollTransactions {\n    // Struct to store transaction details\n    struct Transaction {\n        uint256 id;\n        address userPublicKey;\n        address tollBoothPublicKey;\n        uint256 amount;\n    }\n\n    // Mapping to store transactions by their ID\n    mapping(uint256 => Transaction) public transactions;\n\n    // Event to log transaction details\n    event TransactionCompleted(\n        uint256 indexed id,\n        address indexed userPublicKey,\n        address indexed tollBoothPublicKey,\n        uint256 amount\n    );\n\n    // Function to facilitate a transaction\n    function makeTransaction(\n        uint256 _id,\n        address _userPublicKey,\n        address _tollBoothPublicKey,\n        uint256 _amount\n    ) public payable {\n        require(msg.value == _amount, \"Incorrect amount sent.\");\n        require(transactions[_id].id == 0, \"Transaction ID already exists.\");\n\n        // Record the transaction details\n        transactions[_id] = Transaction({\n            id: _id,\n            userPublicKey: _userPublicKey,\n            tollBoothPublicKey: _tollBoothPublicKey,\n            amount: _amount\n        });\n\n        // Transfer the amount to the toll booth\n        payable(_tollBoothPublicKey).transfer(_amount);\n\n        // Emit an event for logging\n        emit TransactionCompleted(_id, _userPublicKey, _tollBoothPublicKey, _amount);\n    }\n\n    // Function to fetch transaction details by ID\n    function getTransaction(uint256 _id)\n        public\n        view\n        returns (\n            uint256 id,\n            address userPublicKey,\n            address tollBoothPublicKey,\n            uint256 amount\n        )\n    {\n        Transaction memory txn = transactions[_id];\n        require(txn.id != 0, \"Transaction not found.\");\n        return (txn.id, txn.userPublicKey, txn.tollBoothPublicKey, txn.amount);\n    }\n}\n",
  "sourcePath": "/home/captaincuckoo/Documents/kode/major-proj/blockchain-bs/contracts/TollTransactions.sol",
  "compiler": {
    "name": "solc",
    "version": "0.8.0+commit.c7dfd78e.Emscripten.clang"
  },
  "schemaVersion": "3.4.16",
  "updatedAt": "2024-11-19T10:55:00.636Z",
  "networkType": "ethereum",
  "devdoc": {
    "kind": "dev",
    "methods": {},
    "version": 1
  },
  "userdoc": {
    "kind": "user",
    "methods": {},
    "version": 1
  }
}